{"abi":[{"type":"constructor","inputs":[{"name":"minterSigner_","type":"address","internalType":"address"}],"stateMutability":"nonpayable"},{"type":"function","name":"MAX_SUPPLY","inputs":[],"outputs":[{"name":"","type":"uint256","internalType":"uint256"}],"stateMutability":"view"},{"type":"function","name":"analysisIdMinted","inputs":[{"name":"analysisId","type":"uint256","internalType":"uint256"}],"outputs":[{"name":"minted","type":"bool","internalType":"bool"}],"stateMutability":"view"},{"type":"function","name":"analysisTier","inputs":[{"name":"","type":"uint256","internalType":"uint256"},{"name":"","type":"address","internalType":"address"}],"outputs":[{"name":"","type":"uint8","internalType":"uint8"}],"stateMutability":"view"},{"type":"function","name":"approve","inputs":[{"name":"to","type":"address","internalType":"address"},{"name":"tokenId","type":"uint256","internalType":"uint256"}],"outputs":[],"stateMutability":"nonpayable"},{"type":"function","name":"attestScan","inputs":[{"name":"scanHash","type":"bytes32","internalType":"bytes32"}],"outputs":[],"stateMutability":"nonpayable"},{"type":"function","name":"balanceOf","inputs":[{"name":"owner","type":"address","internalType":"address"}],"outputs":[{"name":"","type":"uint256","internalType":"uint256"}],"stateMutability":"view"},{"type":"function","name":"canRescan","inputs":[{"name":"user","type":"address","internalType":"address"}],"outputs":[{"name":"","type":"bool","internalType":"bool"}],"stateMutability":"view"},{"type":"function","name":"claimScan","inputs":[{"name":"scanHash","type":"bytes32","internalType":"bytes32"}],"outputs":[],"stateMutability":"nonpayable"},{"type":"function","name":"elitePrice","inputs":[],"outputs":[{"name":"","type":"uint256","internalType":"uint256"}],"stateMutability":"view"},{"type":"function","name":"getApproved","inputs":[{"name":"tokenId","type":"uint256","internalType":"uint256"}],"outputs":[{"name":"","type":"address","internalType":"address"}],"stateMutability":"view"},{"type":"function","name":"getScore","inputs":[{"name":"tokenId","type":"uint256","internalType":"uint256"}],"outputs":[{"name":"score","type":"uint256","internalType":"uint256"},{"name":"dimensions","type":"uint256[7]","internalType":"uint256[7]"},{"name":"analysisId","type":"uint256","internalType":"uint256"}],"stateMutability":"view"},{"type":"function","name":"getTier","inputs":[{"name":"user","type":"address","internalType":"address"},{"name":"analysisId","type":"uint256","internalType":"uint256"}],"outputs":[{"name":"","type":"uint8","internalType":"uint8"}],"stateMutability":"view"},{"type":"function","name":"getUserScores","inputs":[{"name":"user","type":"address","internalType":"address"}],"outputs":[{"name":"","type":"uint256[]","internalType":"uint256[]"}],"stateMutability":"view"},{"type":"function","name":"isApprovedForAll","inputs":[{"name":"owner","type":"address","internalType":"address"},{"name":"operator","type":"address","internalType":"address"}],"outputs":[{"name":"","type":"bool","internalType":"bool"}],"stateMutability":"view"},{"type":"function","name":"isSubscribed","inputs":[{"name":"user","type":"address","internalType":"address"}],"outputs":[{"name":"","type":"bool","internalType":"bool"}],"stateMutability":"view"},{"type":"function","name":"lastScanTime","inputs":[{"name":"","type":"address","internalType":"address"}],"outputs":[{"name":"","type":"uint256","internalType":"uint256"}],"stateMutability":"view"},{"type":"function","name":"mintPrice","inputs":[],"outputs":[{"name":"","type":"uint256","internalType":"uint256"}],"stateMutability":"view"},{"type":"function","name":"mintScore","inputs":[{"name":"data","type":"tuple","internalType":"struct SoundaryaScore.ScoreData","components":[{"name":"analysisId","type":"uint256","internalType":"uint256"},{"name":"nonce","type":"uint256","internalType":"uint256"},{"name":"to","type":"address","internalType":"address"},{"name":"score","type":"uint256","internalType":"uint256"},{"name":"dim0","type":"uint256","internalType":"uint256"},{"name":"dim1","type":"uint256","internalType":"uint256"},{"name":"dim2","type":"uint256","internalType":"uint256"},{"name":"dim3","type":"uint256","internalType":"uint256"},{"name":"dim4","type":"uint256","internalType":"uint256"},{"name":"dim5","type":"uint256","internalType":"uint256"},{"name":"dim6","type":"uint256","internalType":"uint256"}]},{"name":"signature","type":"bytes","internalType":"bytes"}],"outputs":[{"name":"tokenId","type":"uint256","internalType":"uint256"}],"stateMutability":"payable"},{"type":"function","name":"minterSigner","inputs":[],"outputs":[{"name":"","type":"address","internalType":"address"}],"stateMutability":"view"},{"type":"function","name":"monthlySubscriptionPrice","inputs":[],"outputs":[{"name":"","type":"uint256","internalType":"uint256"}],"stateMutability":"view"},{"type":"function","name":"name","inputs":[],"outputs":[{"name":"","type":"string","internalType":"string"}],"stateMutability":"view"},{"type":"function","name":"owner","inputs":[],"outputs":[{"name":"","type":"address","internalType":"address"}],"stateMutability":"view"},{"type":"function","name":"ownerOf","inputs":[{"name":"tokenId","type":"uint256","internalType":"uint256"}],"outputs":[{"name":"","type":"address","internalType":"address"}],"stateMutability":"view"},{"type":"function","name":"premiumPrice","inputs":[],"outputs":[{"name":"","type":"uint256","internalType":"uint256"}],"stateMutability":"view"},{"type":"function","name":"relayerAddress","inputs":[],"outputs":[{"name":"","type":"address","internalType":"address"}],"stateMutability":"view"},{"type":"function","name":"renounceOwnership","inputs":[],"outputs":[],"stateMutability":"nonpayable"},{"type":"function","name":"rescanCooldown","inputs":[],"outputs":[{"name":"","type":"uint256","internalType":"uint256"}],"stateMutability":"view"},{"type":"function","name":"rescanCredits","inputs":[{"name":"","type":"address","internalType":"address"}],"outputs":[{"name":"","type":"uint8","internalType":"uint8"}],"stateMutability":"view"},{"type":"function","name":"safeTransferFrom","inputs":[{"name":"from","type":"address","internalType":"address"},{"name":"to","type":"address","internalType":"address"},{"name":"tokenId","type":"uint256","internalType":"uint256"}],"outputs":[],"stateMutability":"nonpayable"},{"type":"function","name":"safeTransferFrom","inputs":[{"name":"from","type":"address","internalType":"address"},{"name":"to","type":"address","internalType":"address"},{"name":"tokenId","type":"uint256","internalType":"uint256"},{"name":"data","type":"bytes","internalType":"bytes"}],"outputs":[],"stateMutability":"nonpayable"},{"type":"function","name":"scanAttested","inputs":[{"name":"","type":"bytes32","internalType":"bytes32"}],"outputs":[{"name":"","type":"bool","internalType":"bool"}],"stateMutability":"view"},{"type":"function","name":"scanToWallet","inputs":[{"name":"","type":"bytes32","internalType":"bytes32"}],"outputs":[{"name":"","type":"address","internalType":"address"}],"stateMutability":"view"},{"type":"function","name":"scoreOf","inputs":[{"name":"tokenId","type":"uint256","internalType":"uint256"}],"outputs":[{"name":"","type":"uint256","internalType":"uint256"}],"stateMutability":"view"},{"type":"function","name":"setApprovalForAll","inputs":[{"name":"operator","type":"address","internalType":"address"},{"name":"approved","type":"bool","internalType":"bool"}],"outputs":[],"stateMutability":"nonpayable"},{"type":"function","name":"setMintPrice","inputs":[{"name":"newMintPrice","type":"uint256","internalType":"uint256"}],"outputs":[],"stateMutability":"nonpayable"},{"type":"function","name":"setMinterSigner","inputs":[{"name":"newSigner","type":"address","internalType":"address"}],"outputs":[],"stateMutability":"nonpayable"},{"type":"function","name":"setRelayer","inputs":[{"name":"_relayer","type":"address","internalType":"address"}],"outputs":[],"stateMutability":"nonpayable"},{"type":"function","name":"setRescanCooldown","inputs":[{"name":"cooldown","type":"uint256","internalType":"uint256"}],"outputs":[],"stateMutability":"nonpayable"},{"type":"function","name":"setSubscriptionPrices","inputs":[{"name":"weekly","type":"uint256","internalType":"uint256"},{"name":"monthly","type":"uint256","internalType":"uint256"}],"outputs":[],"stateMutability":"nonpayable"},{"type":"function","name":"setUsername","inputs":[{"name":"name","type":"string","internalType":"string"}],"outputs":[],"stateMutability":"nonpayable"},{"type":"function","name":"subscribeMonthly","inputs":[],"outputs":[],"stateMutability":"payable"},{"type":"function","name":"subscribeWeekly","inputs":[],"outputs":[],"stateMutability":"payable"},{"type":"function","name":"subscriptionExpiry","inputs":[{"name":"","type":"address","internalType":"address"}],"outputs":[{"name":"","type":"uint256","internalType":"uint256"}],"stateMutability":"view"},{"type":"function","name":"supportsInterface","inputs":[{"name":"interfaceId","type":"bytes4","internalType":"bytes4"}],"outputs":[{"name":"","type":"bool","internalType":"bool"}],"stateMutability":"view"},{"type":"function","name":"symbol","inputs":[],"outputs":[{"name":"","type":"string","internalType":"string"}],"stateMutability":"view"},{"type":"function","name":"tokenURI","inputs":[{"name":"tokenId","type":"uint256","internalType":"uint256"}],"outputs":[{"name":"","type":"string","internalType":"string"}],"stateMutability":"view"},{"type":"function","name":"totalScansAttested","inputs":[],"outputs":[{"name":"","type":"uint256","internalType":"uint256"}],"stateMutability":"view"},{"type":"function","name":"transferFrom","inputs":[{"name":"from","type":"address","internalType":"address"},{"name":"to","type":"address","internalType":"address"},{"name":"tokenId","type":"uint256","internalType":"uint256"}],"outputs":[],"stateMutability":"nonpayable"},{"type":"function","name":"transferOwnership","inputs":[{"name":"newOwner","type":"address","internalType":"address"}],"outputs":[],"stateMutability":"nonpayable"},{"type":"function","name":"unlockPrice","inputs":[],"outputs":[{"name":"","type":"uint256","internalType":"uint256"}],"stateMutability":"view"},{"type":"function","name":"unlockReport","inputs":[{"name":"analysisId","type":"uint256","internalType":"uint256"},{"name":"tier","type":"uint8","internalType":"uint8"}],"outputs":[],"stateMutability":"payable"},{"type":"function","name":"updatePrices","inputs":[{"name":"_u","type":"uint256","internalType":"uint256"},{"name":"_p","type":"uint256","internalType":"uint256"},{"name":"_e","type":"uint256","internalType":"uint256"}],"outputs":[],"stateMutability":"nonpayable"},{"type":"function","name":"usedSignatures","inputs":[{"name":"sigHash","type":"bytes32","internalType":"bytes32"}],"outputs":[{"name":"used","type":"bool","internalType":"bool"}],"stateMutability":"view"},{"type":"function","name":"userTokenIds","inputs":[{"name":"","type":"address","internalType":"address"},{"name":"","type":"uint256","internalType":"uint256"}],"outputs":[{"name":"","type":"uint256","internalType":"uint256"}],"stateMutability":"view"},{"type":"function","name":"username","inputs":[{"name":"","type":"address","internalType":"address"}],"outputs":[{"name":"","type":"string","internalType":"string"}],"stateMutability":"view"},{"type":"function","name":"weeklySubscriptionPrice","inputs":[],"outputs":[{"name":"","type":"uint256","internalType":"uint256"}],"stateMutability":"view"},{"type":"event","name":"Approval","inputs":[{"name":"owner","type":"address","indexed":true,"internalType":"address"},{"name":"approved","type":"address","indexed":true,"internalType":"address"},{"name":"tokenId","type":"uint256","indexed":true,"internalType":"uint256"}],"anonymous":false},{"type":"event","name":"ApprovalForAll","inputs":[{"name":"owner","type":"address","indexed":true,"internalType":"address"},{"name":"operator","type":"address","indexed":true,"internalType":"address"},{"name":"approved","type":"bool","indexed":false,"internalType":"bool"}],"anonymous":false},{"type":"event","name":"OwnershipTransferred","inputs":[{"name":"previousOwner","type":"address","indexed":true,"internalType":"address"},{"name":"newOwner","type":"address","indexed":true,"internalType":"address"}],"anonymous":false},{"type":"event","name":"PricesUpdated","inputs":[{"name":"unlock","type":"uint256","indexed":false,"internalType":"uint256"},{"name":"premium","type":"uint256","indexed":false,"internalType":"uint256"},{"name":"elite","type":"uint256","indexed":false,"internalType":"uint256"}],"anonymous":false},{"type":"event","name":"ScanAttested","inputs":[{"name":"scanHash","type":"bytes32","indexed":true,"internalType":"bytes32"},{"name":"totalScans","type":"uint256","indexed":false,"internalType":"uint256"}],"anonymous":false},{"type":"event","name":"ScanMapped","inputs":[{"name":"scanHash","type":"bytes32","indexed":true,"internalType":"bytes32"},{"name":"wallet","type":"address","indexed":true,"internalType":"address"}],"anonymous":false},{"type":"event","name":"ScoreMinted","inputs":[{"name":"tokenId","type":"uint256","indexed":true,"internalType":"uint256"},{"name":"to","type":"address","indexed":true,"internalType":"address"},{"name":"analysisId","type":"uint256","indexed":true,"internalType":"uint256"},{"name":"score","type":"uint256","indexed":false,"internalType":"uint256"}],"anonymous":false},{"type":"event","name":"Subscribed","inputs":[{"name":"user","type":"address","indexed":true,"internalType":"address"},{"name":"duration","type":"uint256","indexed":false,"internalType":"uint256"},{"name":"expiry","type":"uint256","indexed":false,"internalType":"uint256"}],"anonymous":false},{"type":"event","name":"TierUnlocked","inputs":[{"name":"user","type":"address","indexed":true,"internalType":"address"},{"name":"analysisId","type":"uint256","indexed":true,"internalType":"uint256"},{"name":"tier","type":"uint8","indexed":false,"internalType":"uint8"}],"anonymous":false},{"type":"event","name":"Transfer","inputs":[{"name":"from","type":"address","indexed":true,"internalType":"address"},{"name":"to","type":"address","indexed":true,"internalType":"address"},{"name":"tokenId","type":"uint256","indexed":true,"internalType":"uint256"}],"anonymous":false},{"type":"event","name":"UsernameSet","inputs":[{"name":"user","type":"address","indexed":true,"internalType":"address"},{"name":"username","type":"string","indexed":false,"internalType":"string"}],"anonymous":false},{"type":"error","name":"ECDSAInvalidSignature","inputs":[]},{"type":"error","name":"ECDSAInvalidSignatureLength","inputs":[{"name":"length","type":"uint256","internalType":"uint256"}]},{"type":"error","name":"ECDSAInvalidSignatureS","inputs":[{"name":"s","type":"bytes32","internalType":"bytes32"}]},{"type":"error","name":"ERC721IncorrectOwner","inputs":[{"name":"sender","type":"address","internalType":"address"},{"name":"tokenId","type":"uint256","internalType":"uint256"},{"name":"owner","type":"address","internalType":"address"}]},{"type":"error","name":"ERC721InsufficientApproval","inputs":[{"name":"operator","type":"address","internalType":"address"},{"name":"tokenId","type":"uint256","internalType":"uint256"}]},{"type":"error","name":"ERC721InvalidApprover","inputs":[{"name":"approver","type":"address","internalType":"address"}]},{"type":"error","name":"ERC721InvalidOperator","inputs":[{"name":"operator","type":"address","internalType":"address"}]},{"type":"error","name":"ERC721InvalidOwner","inputs":[{"name":"owner","type":"address","internalType":"address"}]},{"type":"error","name":"ERC721InvalidReceiver","inputs":[{"name":"receiver","type":"address","internalType":"address"}]},{"type":"error","name":"ERC721InvalidSender","inputs":[{"name":"sender","type":"address","internalType":"address"}]},{"type":"error","name":"ERC721NonexistentToken","inputs":[{"name":"tokenId","type":"uint256","internalType":"uint256"}]},{"type":"error","name":"OwnableInvalidOwner","inputs":[{"name":"owner","type":"address","internalType":"address"}]},{"type":"error","name":"OwnableUnauthorizedAccount","inputs":[{"name":"account","type":"address","internalType":"address"}]}],"bytecode":{"object":"0x608060405266038d7ea4c680006007556611c37937e0800060085566354a6ba7a1800060095566044364c5bb0000600a55660e35fa931a0000600b55662386f26fc10000600c5562093a80600d556001601a553480156200005e575f80fd5b50604051620034dc380380620034dc8339810160408190526200008191620001e4565b336040518060400160405280600e81526020016d536f756e646172796153636f726560901b8152506040518060400160405280600581526020016453434f524560d81b815250815f9081620000d79190620002b1565b506001620000e68282620002b1565b5050506001600160a01b0381166200011857604051631e4fbdf760e01b81525f60048201526024015b60405180910390fd5b620001238162000193565b506001600160a01b0381166200016d5760405162461bcd60e51b815260206004820152600e60248201526d06d696e7465725369676e65723d360941b60448201526064016200010f565b601880546001600160a01b0319166001600160a01b03929092169190911790556200037d565b600680546001600160a01b038381166001600160a01b0319831681179093556040519116919082907f8be0079c531659141344cd1fd0a4f28419497f9722a3daafe3b4186f6b6457e0905f90a35050565b5f60208284031215620001f5575f80fd5b81516001600160a01b03811681146200020c575f80fd5b9392505050565b634e487b7160e01b5f52604160045260245ffd5b600181811c908216806200023c57607f821691505b6020821081036200025b57634e487b7160e01b5f52602260045260245ffd5b50919050565b601f821115620002ac57805f5260205f20601f840160051c81016020851015620002885750805b601f840160051c820191505b81811015620002a9575f815560010162000294565b50505b505050565b81516001600160401b03811115620002cd57620002cd62000213565b620002e581620002de845462000227565b8462000261565b602080601f8311600181146200031b575f8415620003035750858301515b5f19600386901b1c1916600185901b17855562000375565b5f85815260208120601f198616915b828110156200034b578886015182559484019460019091019084016200032a565b50858210156200036957878501515f19600388901b60f8161c191681555b505060018460011b0185555b505050505050565b613151806200038b5f395ff3fe60806040526004361061035b575f3560e01c8063752821e9116101bd578063c87b56dd116100f2578063ed59313a11610092578063f2fde38b1161006d578063f2fde38b14610a37578063f373df0e14610a56578063f4a0a52814610a5e578063f978fd6114610a7d575f80fd5b8063ed59313a146109d7578063ef941c8e146109f6578063f25ba4e714610a24575f80fd5b8063d036e0d9116100cd578063d036e0d914610965578063dd99af191461097a578063deb973c314610999578063e985e9c5146109b8575f80fd5b8063c87b56dd14610912578063c93e241b14610931578063cc17e15d14610946575f80fd5b8063a763ba751161015d578063b660447211610138578063b660447214610895578063b88d4fde1461089d578063b92ae87c146108bc578063bbf92184146108f3575f80fd5b8063a763ba751461082d578063ab26789714610861578063af862b2214610876575f80fd5b80638da5cb5b116101985780638da5cb5b146107c85780638fd3ffc6146107e557806395d89b41146107fa578063a22cb4651461080e575f80fd5b8063752821e91461074d57806379444ad91461077b5780637e15b4ab1461079a575f80fd5b80633ed620a4116102935780636352211e1161023357806370a082311161020e57806370a08231146106cd578063715018a6146106ec578063721d3b10146107005780637415eec21461071f575f80fd5b80636352211e1461067a5780636548e9bc146106995780636817c76c146106b8575f80fd5b8063485c42561161026e578063485c4256146105cb5780634baa735614610604578063608c831d1461062357806360a85ef51461064f575f80fd5b80633ed620a41461057a57806342842e0e14610599578063456c09d3146105b8575f80fd5b806315c69981116102fe57806323b872dd116102d957806323b872dd1461051b57806330654e131461053a57806332cb6b0c1461054f5780633a3561e514610565575f80fd5b806315c699811461049257806318a7cca8146104e75780631e784ee214610506575f80fd5b8063081812fc11610339578063081812fc146103d3578063095ea7b31461040a5780630e1af57b1461042b5780631010a40614610459575f80fd5b806301ffc9a71461035f5780630610a7a21461039357806306fdde03146103bf575b5f80fd5b34801561036a575f80fd5b5061037e610379366004612a32565b610aab565b60405190151581526020015b60405180910390f35b34801561039e575f80fd5b506103b26103ad366004612a68565b610afc565b60405161038a9190612ace565b3480156103ca575f80fd5b506103b2610b93565b3480156103de575f80fd5b506103f26103ed366004612ae0565b610c22565b6040516001600160a01b03909116815260200161038a565b348015610415575f80fd5b50610429610424366004612af7565b610c49565b005b348015610436575f80fd5b5061044a610445366004612ae0565b610c58565b60405161038a93929190612b1f565b348015610464575f80fd5b50610484610473366004612a68565b600f6020525f908152604090205481565b60405190815260200161038a565b34801561049d575f80fd5b506104d56104ac366004612af7565b5f9081526011602090815260408083206001600160a01b03949094168352929052205460ff1690565b60405160ff909116815260200161038a565b3480156104f2575f80fd5b506019546103f2906001600160a01b031681565b348015610511575f80fd5b50610484600a5481565b348015610526575f80fd5b50610429610535366004612b5f565b610cd0565b348015610545575f80fd5b50610484600b5481565b34801561055a575f80fd5b50610484620f424081565b348015610570575f80fd5b5061048460145481565b348015610585575f80fd5b50610429610594366004612b98565b610d5e565b3480156105a4575f80fd5b506104296105b3366004612b5f565b610dbb565b6104296105c6366004612bc1565b610dda565b3480156105d6575f80fd5b506104d56105e5366004612bf4565b601160209081525f928352604080842090915290825290205460ff1681565b34801561060f575f80fd5b506018546103f2906001600160a01b031681565b34801561062e575f80fd5b5061064261063d366004612a68565b611057565b60405161038a9190612c1e565b34801561065a575f80fd5b50610484610669366004612a68565b600e6020525f908152604090205481565b348015610685575f80fd5b506103f2610694366004612ae0565b6110c0565b3480156106a4575f80fd5b506104296106b3366004612a68565b6110ca565b3480156106c3575f80fd5b5061048460075481565b3480156106d8575f80fd5b506104846106e7366004612a68565b6110f4565b3480156106f7575f80fd5b50610429611139565b34801561070b575f80fd5b5061042961071a366004612ae0565b61114c565b34801561072a575f80fd5b506104d5610739366004612a68565b60126020525f908152604090205460ff1681565b348015610758575f80fd5b50610484610767366004612ae0565b5f908152601d602052604090206002015490565b348015610786575f80fd5b5061037e610795366004612a68565b61124f565b3480156107a5575f80fd5b5061037e6107b4366004612ae0565b60136020525f908152604090205460ff1681565b3480156107d3575f80fd5b506006546001600160a01b03166103f2565b3480156107f0575f80fd5b50610484600d5481565b348015610805575f80fd5b506103b261129a565b348015610819575f80fd5b50610429610828366004612c61565b6112a9565b348015610838575f80fd5b506103f2610847366004612ae0565b60156020525f90815260409020546001600160a01b031681565b34801561086c575f80fd5b50610484600c5481565b348015610881575f80fd5b50610429610890366004612ae0565b6112b4565b6104296112c1565b3480156108a8575f80fd5b506104296108b7366004612ca3565b611365565b3480156108c7575f80fd5b5061037e6108d6366004612a68565b6001600160a01b03165f908152600e602052604090205442111590565b3480156108fe575f80fd5b5061042961090d366004612ae0565b61137d565b34801561091d575f80fd5b506103b261092c366004612ae0565b611472565b34801561093c575f80fd5b5061048460085481565b348015610951575f80fd5b50610484610960366004612af7565b6114e3565b348015610970575f80fd5b5061048460095481565b348015610985575f80fd5b50610429610994366004612a68565b61150e565b3480156109a4575f80fd5b506104296109b3366004612d78565b61157c565b3480156109c3575f80fd5b5061037e6109d2366004612d98565b61158f565b3480156109e2575f80fd5b506104296109f1366004612e05565b6115bc565b348015610a01575f80fd5b5061037e610a10366004612ae0565b601b6020525f908152604090205460ff1681565b610484610a32366004612e44565b6117cd565b348015610a42575f80fd5b50610429610a51366004612a68565b611dc0565b610429611dfd565b348015610a69575f80fd5b50610429610a78366004612ae0565b611e94565b348015610a88575f80fd5b5061037e610a97366004612ae0565b601c6020525f908152604090205460ff1681565b5f6001600160e01b031982166380ac58cd60e01b1480610adb57506001600160e01b03198216635b5e139f60e01b145b80610af657506301ffc9a760e01b6001600160e01b03198316145b92915050565b60166020525f908152604090208054610b1490612e9c565b80601f0160208091040260200160405190810160405280929190818152602001828054610b4090612e9c565b8015610b8b5780601f10610b6257610100808354040283529160200191610b8b565b820191905f5260205f20905b815481529060010190602001808311610b6e57829003601f168201915b505050505081565b60605f8054610ba190612e9c565b80601f0160208091040260200160405190810160405280929190818152602001828054610bcd90612e9c565b8015610c185780601f10610bef57610100808354040283529160200191610c18565b820191905f5260205f20905b815481529060010190602001808311610bfb57829003601f168201915b5050505050905090565b5f610c2c82611ea1565b505f828152600460205260409020546001600160a01b0316610af6565b610c54828233611ed9565b5050565b5f610c616129ff565b50505f908152601d60209081526040918290206002810154835160e081018552600383015481526004830154938101939093526005820154938301939093526006810154606083015260078101546080830152600881015460a0830152600981015460c0830152549192909190565b6001600160a01b038216610cfe57604051633250574960e11b81525f60048201526024015b60405180910390fd5b5f610d0a838333611ee6565b9050836001600160a01b0316816001600160a01b031614610d58576040516364283d7b60e01b81526001600160a01b0380861660048301526024820184905282166044820152606401610cf5565b50505050565b610d66611fd8565b600a839055600b829055600c81905560408051848152602081018490529081018290527fa6b830b74e52d7d1140e76252f225dc7bed28782519845600bbd3182341dc1159060600160405180910390a1505050565b610dd583838360405180602001604052805f815250611365565b505050565b60018160ff1610158015610df2575060038160ff1611155b610e2d5760405162461bcd60e51b815260206004820152600c60248201526b24b73b30b634b2103a34b2b960a11b6044820152606401610cf5565b5f82815260116020908152604080832033845290915290205460ff808316911610610e9a5760405162461bcd60e51b815260206004820152601e60248201527f416c726561647920617420746869732074696572206f722068696768657200006044820152606401610cf5565b5f8160ff16600103610eaf5750600a54610ec8565b8160ff16600203610ec35750600b54610ec8565b50600c545b80341015610f0b5760405162461bcd60e51b815260206004820152601060248201526f092dce6eaccccd2c6d2cadce8408aa8960831b6044820152606401610cf5565b5f8381526011602090815260408083203384529091529020805460ff191660ff8416908117909155600303610f7557335f908152601260205260408120805460039290610f5c90849060ff16612ee8565b92506101000a81548160ff021916908360ff1602179055505b5f610f886006546001600160a01b031690565b6001600160a01b0316346040515f6040518083038185875af1925050503d805f8114610fcf576040519150601f19603f3d011682016040523d82523d5f602084013e610fd4565b606091505b50509050806110175760405162461bcd60e51b815260206004820152600f60248201526e151c985b9cd9995c8819985a5b1959608a1b6044820152606401610cf5565b60405160ff84168152849033907ffa36168c733b4c601b17553edfb42b696a96fc35572f0eca85e7d3e24cc956019060200160405180910390a350505050565b6001600160a01b0381165f908152601060209081526040918290208054835181840281018401909452808452606093928301828280156110b457602002820191905f5260205f20905b8154815260200190600101908083116110a0575b50505050509050919050565b5f610af682611ea1565b6110d2611fd8565b601980546001600160a01b0319166001600160a01b0392909216919091179055565b5f6001600160a01b03821661111e576040516322718ad960e21b81525f6004820152602401610cf5565b506001600160a01b03165f9081526003602052604090205490565b611141611fd8565b61114a5f612005565b565b6019546001600160a01b031633146111945760405162461bcd60e51b815260206004820152600b60248201526a2737ba103932b630bcb2b960a91b6044820152606401610cf5565b5f8181526013602052604090205460ff16156111e55760405162461bcd60e51b815260206004820152601060248201526f105b1c9958591e48185d1d195cdd195960821b6044820152606401610cf5565b5f818152601360205260408120805460ff19166001179055601480549161120b83612f01565b9190505550807f4b316ff58268bbac003cf6bf9ab773d3135b7fde2d3eac25187eb99aa1c77f0b60145460405161124491815260200190565b60405180910390a250565b600d546001600160a01b0382165f908152600f6020526040812054909161127591612f19565b42101580610af65750506001600160a01b03165f908152600f60205260409020541590565b606060018054610ba190612e9c565b610c54338383612056565b6112bc611fd8565b600d55565b60095434146113065760405162461bcd60e51b8152602060048201526011602482015270626164206d6f6e74686c7920707269636560781b6044820152606401610cf5565b61131262278d0061211d565b335f818152600e602090815260409182902054825162278d008152918201527ff94991dcbea6e8ac439cbc93bd9c62a4d39f04e0ad656df9a703f13552c2787f91015b60405180910390a261114a612175565b611370848484610cd0565b610d58338585858561221a565b5f8181526013602052604090205460ff166113ce5760405162461bcd60e51b815260206004820152601160248201527014d8d85b881b9bdd08185d1d195cdd1959607a1b6044820152606401610cf5565b5f818152601560205260409020546001600160a01b0316156114245760405162461bcd60e51b815260206004820152600f60248201526e105b1c9958591e4818db185a5b5959608a1b6044820152606401610cf5565b5f8181526015602052604080822080546001600160a01b031916339081179091559051909183917fa802828abac40e5cf8d2a49542c22648cea6f14e9030c094233c887bb4cd2f0a9190a350565b606061147d82611ea1565b505f61149360408051602081019091525f815290565b90505f8151116114b15760405180602001604052805f8152506114dc565b806114bb84612342565b6040516020016114cc929190612f2c565b6040516020818303038152906040525b9392505050565b6010602052815f5260405f2081815481106114fc575f80fd5b905f5260205f20015f91509150505481565b611516611fd8565b6001600160a01b03811661155a5760405162461bcd60e51b815260206004820152600b60248201526a06e65775369676e65723d360ac1b6044820152606401610cf5565b601880546001600160a01b0319166001600160a01b0392909216919091179055565b611584611fd8565b600891909155600955565b6001600160a01b039182165f90815260056020908152604080832093909416825291909152205460ff1690565b600381108015906115ce575060148111155b61160b5760405162461bcd60e51b815260206004820152600e60248201526d092dcecc2d8d2c840d8cadccee8d60931b6044820152606401610cf5565b6017828260405161161d929190612f5a565b9081526040519081900360200190205460ff161561166e5760405162461bcd60e51b815260206004820152600e60248201526d2ab9b2b93730b6b2903a30b5b2b760911b6044820152606401610cf5565b335f908152601660205260408120805461168790612e9c565b80601f01602080910402602001604051908101604052809291908181526020018280546116b390612e9c565b80156116fe5780601f106116d5576101008083540402835291602001916116fe565b820191905f5260205f20905b8154815290600101906020018083116116e157829003601f168201915b505050505090505f81511115611740575f60178260405161171f9190612f69565b908152604051908190036020019020805491151560ff199092169190911790555b335f908152601660205260409020611759838583612fc8565b5060016017848460405161176e929190612f5a565b908152604051908190036020018120805492151560ff199093169290921790915533907f74d8e560d2e870c35b35dc882df2a5c96e2bf1cdb5ef6dd2f9cb433c8d048853906117c09086908690613082565b60405180910390a2505050565b5f806117df6060860160408701612a68565b6001600160a01b03160361181e5760405162461bcd60e51b8152600401610cf5906020808252600490820152630746f3d360e41b604082015260600190565b6118273361124f565b61186c5760405162461bcd60e51b815260206004820152601660248201527572657363616e20636f6f6c646f776e2061637469766560501b6044820152606401610cf5565b335f908152600e60205260409020544211156118d75760075434146118c45760405162461bcd60e51b815260206004820152600e60248201526d626164206d696e7420707269636560901b6044820152606401610cf5565b34156118d2576118d2612175565b61191e565b341561191e5760405162461bcd60e51b81526020600482015260166024820152750e6eac4e6c6e4d2c4cac85840e6cadcc84060408aa8960531b6044820152606401610cf5565b5f846060013511801561193657506064846060013511155b6119775760405162461bcd60e51b815260206004820152601260248201527173636f7265206f7574206f662072616e676560701b6044820152606401610cf5565b620f4240601a5411156119c15760405162461bcd60e51b81526020600482015260126024820152711b585e081cdd5c1c1b1e481c995858da195960721b6044820152606401610cf5565b5f83836040516119d2929190612f5a565b60408051918290039091205f818152601c602052919091205490915060ff1615611a2f5760405162461bcd60e51b815260206004820152600e60248201526d1cda59db985d1d5c99481d5cd95960921b6044820152606401610cf5565b84355f908152601b602052604090205460ff1615611a8f5760405162461bcd60e51b815260206004820152601760248201527f616e616c7973697320616c7265616479206d696e7465640000000000000000006044820152606401610cf5565b5f611b29604051806101600160405280885f0135815260200188602001358152602001886040016020810190611ac59190612a68565b6001600160a01b0316815260200188606001358152602001886080013581526020018860a0013581526020018860c0013581526020018860e001358152602001886101000135815260200188610120013581526020018861014001358152506123d2565b90505f611b6b8287878080601f0160208091040260200160405190810160405280939291908181526020018383808284375f920191909152506124da92505050565b6018549091506001600160a01b03808316911614611bbf5760405162461bcd60e51b8152602060048201526011602482015270696e76616c6964207369676e617475726560781b6044820152606401610cf5565b86355f908152601b602090815260408083208054600160ff199182168117909255878552601c9093529083208054909216179055601a805491611c0183612f01565b909155509350611c20611c1a6060890160408a01612a68565b85612502565b604051806101400160405280885f013581526020018860200135815260200188606001358152602001886080013581526020018860a0013581526020018860c0013581526020018860e00135815260200188610100013581526020018861012001358152602001886101400135815250601d5f8681526020019081526020015f205f820151815f01556020820151816001015560408201518160020155606082015181600301556080820151816004015560a0820151816005015560c0820151816006015560e082015181600701556101008201518160080155610120820151816009015590505060105f886040016020810190611d1e9190612a68565b6001600160a01b0316815260208082019290925260409081015f908120805460018101825590825283822001879055338152600f90925290819020429055873590611d6f9060608a01908a01612a68565b6001600160a01b0316857fc9978399ecd47160abacdae8b42b4e6dda4c0e5658d47654fb24bb99ea9d290c8a60600135604051611dae91815260200190565b60405180910390a45050509392505050565b611dc8611fd8565b6001600160a01b038116611df157604051631e4fbdf760e01b81525f6004820152602401610cf5565b611dfa81612005565b50565b6008543414611e415760405162461bcd60e51b815260206004820152601060248201526f626164207765656b6c7920707269636560801b6044820152606401610cf5565b611e4d62093a8061211d565b335f818152600e602090815260409182902054825162093a808152918201527ff94991dcbea6e8ac439cbc93bd9c62a4d39f04e0ad656df9a703f13552c2787f9101611355565b611e9c611fd8565b600755565b5f818152600260205260408120546001600160a01b031680610af657604051637e27328960e01b815260048101849052602401610cf5565b610dd5838383600161251b565b5f828152600260205260408120546001600160a01b0390811690831615611f1257611f1281848661261f565b6001600160a01b03811615611f4c57611f2d5f855f8061251b565b6001600160a01b0381165f90815260036020526040902080545f190190555b6001600160a01b03851615611f7a576001600160a01b0385165f908152600360205260409020805460010190555b5f8481526002602052604080822080546001600160a01b0319166001600160a01b0389811691821790925591518793918516917fddf252ad1be2c89b69c2b068fc378daa952ba7f163c4a11628f55a4df523b3ef91a4949350505050565b6006546001600160a01b0316331461114a5760405163118cdaa760e01b8152336004820152602401610cf5565b600680546001600160a01b038381166001600160a01b0319831681179093556040519116919082907f8be0079c531659141344cd1fd0a4f28419497f9722a3daafe3b4186f6b6457e0905f90a35050565b6001600160a01b03831661207f5760405163a9fbf51f60e01b81525f6004820152602401610cf5565b6001600160a01b0382166120b157604051630b61174360e31b81526001600160a01b0383166004820152602401610cf5565b6001600160a01b038381165f81815260056020908152604080832094871680845294825291829020805460ff191686151590811790915591519182527f17307eab39ab6107e8899845ad3d59bd9653f200f220920489ca2b5937696c31910160405180910390a3505050565b335f908152600e602052604090205442111561214f5761213d8142612f19565b335f908152600e602052604090205550565b335f908152600e60205260408120805483929061216d908490612f19565b909155505050565b5f6121886006546001600160a01b031690565b6001600160a01b0316346040515f6040518083038185875af1925050503d805f81146121cf576040519150601f19603f3d011682016040523d82523d5f602084013e6121d4565b606091505b5050905080611dfa5760405162461bcd60e51b815260206004820152601260248201527111551208199bdc9dd85c990819985a5b195960721b6044820152606401610cf5565b6001600160a01b0383163b1561233b57604051630a85bd0160e11b81526001600160a01b0384169063150b7a029061225c9088908890879087906004016130b0565b6020604051808303815f875af1925050508015612296575060408051601f3d908101601f19168201909252612293918101906130ec565b60015b6122fd573d8080156122c3576040519150601f19603f3d011682016040523d82523d5f602084013e6122c8565b606091505b5080515f036122f557604051633250574960e11b81526001600160a01b0385166004820152602401610cf5565b805160208201fd5b6001600160e01b03198116630a85bd0160e11b1461233957604051633250574960e11b81526001600160a01b0385166004820152602401610cf5565b505b5050505050565b60605f61234e83612683565b60010190505f8167ffffffffffffffff81111561236d5761236d612c8f565b6040519080825280601f01601f191660200182016040528015612397576020820181803683370190505b5090508181016020015b5f19016f181899199a1a9b1b9c1cb0b131b232b360811b600a86061a8153600a85049450846123a157509392505050565b5f80825f015183602001518460400151856060015186608001518760a001518860c001518960e001518a61010001518b61012001518c6101400151463060405160200161248c9d9c9b9a999897969594939291909c8d5260208d019b909b526001600160a01b03998a1660408d015260608c019890985260808b019690965260a08a019490945260c089019290925260e0880152610100870152610120860152610140850152610160840152166101808201526101a00190565b6040516020818303038152906040528051906020012090506114dc817f19457468657265756d205369676e6564204d6573736167653a0a3332000000005f908152601c91909152603c902090565b5f805f806124e8868661275a565b9250925092506124f882826127a3565b5090949350505050565b610c54828260405180602001604052805f81525061285b565b808061252f57506001600160a01b03821615155b156125f0575f61253e84611ea1565b90506001600160a01b0383161580159061256a5750826001600160a01b0316816001600160a01b031614155b801561257d575061257b818461158f565b155b156125a65760405163a9fbf51f60e01b81526001600160a01b0384166004820152602401610cf5565b81156125ee5783856001600160a01b0316826001600160a01b03167f8c5be1e5ebec7d5bd14f71427d1e84f3dd0314c0f7b2291e5b200ac8c7c3b92560405160405180910390a45b505b50505f90815260046020526040902080546001600160a01b0319166001600160a01b0392909216919091179055565b61262a838383612872565b610dd5576001600160a01b03831661265857604051637e27328960e01b815260048101829052602401610cf5565b60405163177e802f60e01b81526001600160a01b038316600482015260248101829052604401610cf5565b5f8072184f03e93ff9f4daa797ed6e38ed64bf6a1f0160401b83106126c15772184f03e93ff9f4daa797ed6e38ed64bf6a1f0160401b830492506040015b6d04ee2d6d415b85acef810000000083106126ed576d04ee2d6d415b85acef8100000000830492506020015b662386f26fc10000831061270b57662386f26fc10000830492506010015b6305f5e1008310612723576305f5e100830492506008015b612710831061273757612710830492506004015b60648310612749576064830492506002015b600a8310610af65760010192915050565b5f805f8351604103612791576020840151604085015160608601515f1a612783888285856128d6565b95509550955050505061279c565b505081515f91506002905b9250925092565b5f8260038111156127b6576127b6613107565b036127bf575050565b60018260038111156127d3576127d3613107565b036127f15760405163f645eedf60e01b815260040160405180910390fd5b600282600381111561280557612805613107565b036128265760405163fce698f760e01b815260048101829052602401610cf5565b600382600381111561283a5761283a613107565b03610c54576040516335e2f38360e21b815260048101829052602401610cf5565b612865838361299e565b610dd5335f85858561221a565b5f6001600160a01b038316158015906128ce5750826001600160a01b0316846001600160a01b031614806128ab57506128ab848461158f565b806128ce57505f828152600460205260409020546001600160a01b038481169116145b949350505050565b5f80807f7fffffffffffffffffffffffffffffff5d576e7357a4501ddfe92f46681b20a084111561290f57505f91506003905082612994565b604080515f808252602082018084528a905260ff891692820192909252606081018790526080810186905260019060a0016020604051602081039080840390855afa158015612960573d5f803e3d5ffd5b5050604051601f1901519150506001600160a01b03811661298b57505f925060019150829050612994565b92505f91508190505b9450945094915050565b6001600160a01b0382166129c757604051633250574960e11b81525f6004820152602401610cf5565b5f6129d383835f611ee6565b90506001600160a01b03811615610dd5576040516339e3563760e11b81525f6004820152602401610cf5565b6040518060e001604052806007906020820280368337509192915050565b6001600160e01b031981168114611dfa575f80fd5b5f60208284031215612a42575f80fd5b81356114dc81612a1d565b80356001600160a01b0381168114612a63575f80fd5b919050565b5f60208284031215612a78575f80fd5b6114dc82612a4d565b5f5b83811015612a9b578181015183820152602001612a83565b50505f910152565b5f8151808452612aba816020860160208601612a81565b601f01601f19169290920160200192915050565b602081525f6114dc6020830184612aa3565b5f60208284031215612af0575f80fd5b5035919050565b5f8060408385031215612b08575f80fd5b612b1183612a4d565b946020939093013593505050565b83815261012081016020808301855f5b6007811015612b4c57815183529183019190830190600101612b2f565b5050505082610100830152949350505050565b5f805f60608486031215612b71575f80fd5b612b7a84612a4d565b9250612b8860208501612a4d565b9150604084013590509250925092565b5f805f60608486031215612baa575f80fd5b505081359360208301359350604090920135919050565b5f8060408385031215612bd2575f80fd5b82359150602083013560ff81168114612be9575f80fd5b809150509250929050565b5f8060408385031215612c05575f80fd5b82359150612c1560208401612a4d565b90509250929050565b602080825282518282018190525f9190848201906040850190845b81811015612c5557835183529284019291840191600101612c39565b50909695505050505050565b5f8060408385031215612c72575f80fd5b612c7b83612a4d565b915060208301358015158114612be9575f80fd5b634e487b7160e01b5f52604160045260245ffd5b5f805f8060808587031215612cb6575f80fd5b612cbf85612a4d565b9350612ccd60208601612a4d565b925060408501359150606085013567ffffffffffffffff80821115612cf0575f80fd5b818701915087601f830112612d03575f80fd5b813581811115612d1557612d15612c8f565b604051601f8201601f19908116603f01168101908382118183101715612d3d57612d3d612c8f565b816040528281528a6020848701011115612d55575f80fd5b826020860160208301375f60208483010152809550505050505092959194509250565b5f8060408385031215612d89575f80fd5b50508035926020909101359150565b5f8060408385031215612da9575f80fd5b612db283612a4d565b9150612c1560208401612a4d565b5f8083601f840112612dd0575f80fd5b50813567ffffffffffffffff811115612de7575f80fd5b602083019150836020828501011115612dfe575f80fd5b9250929050565b5f8060208385031215612e16575f80fd5b823567ffffffffffffffff811115612e2c575f80fd5b612e3885828601612dc0565b90969095509350505050565b5f805f838503610180811215612e58575f80fd5b61016080821215612e67575f80fd5b859450840135905067ffffffffffffffff811115612e83575f80fd5b612e8f86828701612dc0565b9497909650939450505050565b600181811c90821680612eb057607f821691505b602082108103612ece57634e487b7160e01b5f52602260045260245ffd5b50919050565b634e487b7160e01b5f52601160045260245ffd5b60ff8181168382160190811115610af657610af6612ed4565b5f60018201612f1257612f12612ed4565b5060010190565b80820180821115610af657610af6612ed4565b5f8351612f3d818460208801612a81565b835190830190612f51818360208801612a81565b01949350505050565b818382375f9101908152919050565b5f8251612f7a818460208701612a81565b9190910192915050565b601f821115610dd557805f5260205f20601f840160051c81016020851015612fa95750805b601f840160051c820191505b8181101561233b575f8155600101612fb5565b67ffffffffffffffff831115612fe057612fe0612c8f565b612ff483612fee8354612e9c565b83612f84565b5f601f841160018114613025575f851561300e5750838201355b5f19600387901b1c1916600186901b17835561233b565b5f83815260208120601f198716915b828110156130545786850135825560209485019460019092019101613034565b5086821015613070575f1960f88860031b161c19848701351681555b505060018560011b0183555050505050565b60208152816020820152818360408301375f818301604090810191909152601f909201601f19160101919050565b6001600160a01b03858116825284166020820152604081018390526080606082018190525f906130e290830184612aa3565b9695505050505050565b5f602082840312156130fc575f80fd5b81516114dc81612a1d565b634e487b7160e01b5f52602160045260245ffdfea2646970667358221220258f8a948e152bd8e3b2262c850d990263873efc742143a68d5e3b884442af2e64736f6c63430008180033","linkReferences":{}},"methodIdentifiers":{"MAX_SUPPLY()":"32cb6b0c","analysisIdMinted(uint256)":"ef941c8e","analysisTier(uint256,address)":"485c4256","approve(address,uint256)":"095ea7b3","attestScan(bytes32)":"721d3b10","balanceOf(address)":"70a08231","canRescan(address)":"79444ad9","claimScan(bytes32)":"bbf92184","elitePrice()":"ab267897","getApproved(uint256)":"081812fc","getScore(uint256)":"0e1af57b","getTier(address,uint256)":"15c69981","getUserScores(address)":"608c831d","isApprovedForAll(address,address)":"e985e9c5","isSubscribed(address)":"b92ae87c","lastScanTime(address)":"1010a406","mintPrice()":"6817c76c","mintScore((uint256,uint256,address,uint256,uint256,uint256,uint256,uint256,uint256,uint256,uint256),bytes)":"f25ba4e7","minterSigner()":"4baa7356","monthlySubscriptionPrice()":"d036e0d9","name()":"06fdde03","owner()":"8da5cb5b","ownerOf(uint256)":"6352211e","premiumPrice()":"30654e13","relayerAddress()":"18a7cca8","renounceOwnership()":"715018a6","rescanCooldown()":"8fd3ffc6","rescanCredits(address)":"7415eec2","safeTransferFrom(address,address,uint256)":"42842e0e","safeTransferFrom(address,address,uint256,bytes)":"b88d4fde","scanAttested(bytes32)":"7e15b4ab","scanToWallet(bytes32)":"a763ba75","scoreOf(uint256)":"752821e9","setApprovalForAll(address,bool)":"a22cb465","setMintPrice(uint256)":"f4a0a528","setMinterSigner(address)":"dd99af19","setRelayer(address)":"6548e9bc","setRescanCooldown(uint256)":"af862b22","setSubscriptionPrices(uint256,uint256)":"deb973c3","setUsername(string)":"ed59313a","subscribeMonthly()":"b6604472","subscribeWeekly()":"f373df0e","subscriptionExpiry(address)":"60a85ef5","supportsInterface(bytes4)":"01ffc9a7","symbol()":"95d89b41","tokenURI(uint256)":"c87b56dd","totalScansAttested()":"3a3561e5","transferFrom(address,address,uint256)":"23b872dd","transferOwnership(address)":"f2fde38b","unlockPrice()":"1e784ee2","unlockReport(uint256,uint8)":"456c09d3","updatePrices(uint256,uint256,uint256)":"3ed620a4","usedSignatures(bytes32)":"f978fd61","userTokenIds(address,uint256)":"cc17e15d","username(address)":"0610a7a2","weeklySubscriptionPrice()":"c93e241b"},"id":0}