{"abi":[{"type":"constructor","inputs":[{"name":"minterSigner_","type":"address","internalType":"address"}],"stateMutability":"nonpayable"},{"type":"function","name":"MAX_SUPPLY","inputs":[],"outputs":[{"name":"","type":"uint256","internalType":"uint256"}],"stateMutability":"view"},{"type":"function","name":"analysisIdMinted","inputs":[{"name":"analysisId","type":"uint256","internalType":"uint256"}],"outputs":[{"name":"minted","type":"bool","internalType":"bool"}],"stateMutability":"view"},{"type":"function","name":"approve","inputs":[{"name":"to","type":"address","internalType":"address"},{"name":"tokenId","type":"uint256","internalType":"uint256"}],"outputs":[],"stateMutability":"nonpayable"},{"type":"function","name":"balanceOf","inputs":[{"name":"owner","type":"address","internalType":"address"}],"outputs":[{"name":"","type":"uint256","internalType":"uint256"}],"stateMutability":"view"},{"type":"function","name":"canRescan","inputs":[{"name":"user","type":"address","internalType":"address"}],"outputs":[{"name":"","type":"bool","internalType":"bool"}],"stateMutability":"view"},{"type":"function","name":"getApproved","inputs":[{"name":"tokenId","type":"uint256","internalType":"uint256"}],"outputs":[{"name":"","type":"address","internalType":"address"}],"stateMutability":"view"},{"type":"function","name":"getScore","inputs":[{"name":"tokenId","type":"uint256","internalType":"uint256"}],"outputs":[{"name":"score","type":"uint256","internalType":"uint256"},{"name":"dimensions","type":"uint256[7]","internalType":"uint256[7]"},{"name":"analysisId","type":"uint256","internalType":"uint256"}],"stateMutability":"view"},{"type":"function","name":"getUserScores","inputs":[{"name":"user","type":"address","internalType":"address"}],"outputs":[{"name":"","type":"uint256[]","internalType":"uint256[]"}],"stateMutability":"view"},{"type":"function","name":"isApprovedForAll","inputs":[{"name":"owner","type":"address","internalType":"address"},{"name":"operator","type":"address","internalType":"address"}],"outputs":[{"name":"","type":"bool","internalType":"bool"}],"stateMutability":"view"},{"type":"function","name":"isSubscribed","inputs":[{"name":"user","type":"address","internalType":"address"}],"outputs":[{"name":"","type":"bool","internalType":"bool"}],"stateMutability":"view"},{"type":"function","name":"lastScanTime","inputs":[{"name":"","type":"address","internalType":"address"}],"outputs":[{"name":"","type":"uint256","internalType":"uint256"}],"stateMutability":"view"},{"type":"function","name":"mintPrice","inputs":[],"outputs":[{"name":"","type":"uint256","internalType":"uint256"}],"stateMutability":"view"},{"type":"function","name":"mintScore","inputs":[{"name":"data","type":"tuple","internalType":"struct SoundaryaScore.ScoreData","components":[{"name":"analysisId","type":"uint256","internalType":"uint256"},{"name":"nonce","type":"uint256","internalType":"uint256"},{"name":"to","type":"address","internalType":"address"},{"name":"score","type":"uint256","internalType":"uint256"},{"name":"dim0","type":"uint256","internalType":"uint256"},{"name":"dim1","type":"uint256","internalType":"uint256"},{"name":"dim2","type":"uint256","internalType":"uint256"},{"name":"dim3","type":"uint256","internalType":"uint256"},{"name":"dim4","type":"uint256","internalType":"uint256"},{"name":"dim5","type":"uint256","internalType":"uint256"},{"name":"dim6","type":"uint256","internalType":"uint256"}]},{"name":"signature","type":"bytes","internalType":"bytes"}],"outputs":[{"name":"tokenId","type":"uint256","internalType":"uint256"}],"stateMutability":"payable"},{"type":"function","name":"minterSigner","inputs":[],"outputs":[{"name":"","type":"address","internalType":"address"}],"stateMutability":"view"},{"type":"function","name":"monthlySubscriptionPrice","inputs":[],"outputs":[{"name":"","type":"uint256","internalType":"uint256"}],"stateMutability":"view"},{"type":"function","name":"name","inputs":[],"outputs":[{"name":"","type":"string","internalType":"string"}],"stateMutability":"view"},{"type":"function","name":"owner","inputs":[],"outputs":[{"name":"","type":"address","internalType":"address"}],"stateMutability":"view"},{"type":"function","name":"ownerOf","inputs":[{"name":"tokenId","type":"uint256","internalType":"uint256"}],"outputs":[{"name":"","type":"address","internalType":"address"}],"stateMutability":"view"},{"type":"function","name":"renounceOwnership","inputs":[],"outputs":[],"stateMutability":"nonpayable"},{"type":"function","name":"rescanCooldown","inputs":[],"outputs":[{"name":"","type":"uint256","internalType":"uint256"}],"stateMutability":"view"},{"type":"function","name":"safeTransferFrom","inputs":[{"name":"from","type":"address","internalType":"address"},{"name":"to","type":"address","internalType":"address"},{"name":"tokenId","type":"uint256","internalType":"uint256"}],"outputs":[],"stateMutability":"nonpayable"},{"type":"function","name":"safeTransferFrom","inputs":[{"name":"from","type":"address","internalType":"address"},{"name":"to","type":"address","internalType":"address"},{"name":"tokenId","type":"uint256","internalType":"uint256"},{"name":"data","type":"bytes","internalType":"bytes"}],"outputs":[],"stateMutability":"nonpayable"},{"type":"function","name":"scoreOf","inputs":[{"name":"tokenId","type":"uint256","internalType":"uint256"}],"outputs":[{"name":"","type":"uint256","internalType":"uint256"}],"stateMutability":"view"},{"type":"function","name":"setApprovalForAll","inputs":[{"name":"operator","type":"address","internalType":"address"},{"name":"approved","type":"bool","internalType":"bool"}],"outputs":[],"stateMutability":"nonpayable"},{"type":"function","name":"setMintPrice","inputs":[{"name":"newMintPrice","type":"uint256","internalType":"uint256"}],"outputs":[],"stateMutability":"nonpayable"},{"type":"function","name":"setMinterSigner","inputs":[{"name":"newSigner","type":"address","internalType":"address"}],"outputs":[],"stateMutability":"nonpayable"},{"type":"function","name":"setRescanCooldown","inputs":[{"name":"cooldown","type":"uint256","internalType":"uint256"}],"outputs":[],"stateMutability":"nonpayable"},{"type":"function","name":"setSubscriptionPrices","inputs":[{"name":"weekly","type":"uint256","internalType":"uint256"},{"name":"monthly","type":"uint256","internalType":"uint256"}],"outputs":[],"stateMutability":"nonpayable"},{"type":"function","name":"subscribeMonthly","inputs":[],"outputs":[],"stateMutability":"payable"},{"type":"function","name":"subscribeWeekly","inputs":[],"outputs":[],"stateMutability":"payable"},{"type":"function","name":"subscriptionExpiry","inputs":[{"name":"","type":"address","internalType":"address"}],"outputs":[{"name":"","type":"uint256","internalType":"uint256"}],"stateMutability":"view"},{"type":"function","name":"supportsInterface","inputs":[{"name":"interfaceId","type":"bytes4","internalType":"bytes4"}],"outputs":[{"name":"","type":"bool","internalType":"bool"}],"stateMutability":"view"},{"type":"function","name":"symbol","inputs":[],"outputs":[{"name":"","type":"string","internalType":"string"}],"stateMutability":"view"},{"type":"function","name":"tokenURI","inputs":[{"name":"tokenId","type":"uint256","internalType":"uint256"}],"outputs":[{"name":"","type":"string","internalType":"string"}],"stateMutability":"view"},{"type":"function","name":"transferFrom","inputs":[{"name":"from","type":"address","internalType":"address"},{"name":"to","type":"address","internalType":"address"},{"name":"tokenId","type":"uint256","internalType":"uint256"}],"outputs":[],"stateMutability":"nonpayable"},{"type":"function","name":"transferOwnership","inputs":[{"name":"newOwner","type":"address","internalType":"address"}],"outputs":[],"stateMutability":"nonpayable"},{"type":"function","name":"usedSignatures","inputs":[{"name":"sigHash","type":"bytes32","internalType":"bytes32"}],"outputs":[{"name":"used","type":"bool","internalType":"bool"}],"stateMutability":"view"},{"type":"function","name":"userTokenIds","inputs":[{"name":"","type":"address","internalType":"address"},{"name":"","type":"uint256","internalType":"uint256"}],"outputs":[{"name":"","type":"uint256","internalType":"uint256"}],"stateMutability":"view"},{"type":"function","name":"weeklySubscriptionPrice","inputs":[],"outputs":[{"name":"","type":"uint256","internalType":"uint256"}],"stateMutability":"view"},{"type":"event","name":"Approval","inputs":[{"name":"owner","type":"address","indexed":true,"internalType":"address"},{"name":"approved","type":"address","indexed":true,"internalType":"address"},{"name":"tokenId","type":"uint256","indexed":true,"internalType":"uint256"}],"anonymous":false},{"type":"event","name":"ApprovalForAll","inputs":[{"name":"owner","type":"address","indexed":true,"internalType":"address"},{"name":"operator","type":"address","indexed":true,"internalType":"address"},{"name":"approved","type":"bool","indexed":false,"internalType":"bool"}],"anonymous":false},{"type":"event","name":"OwnershipTransferred","inputs":[{"name":"previousOwner","type":"address","indexed":true,"internalType":"address"},{"name":"newOwner","type":"address","indexed":true,"internalType":"address"}],"anonymous":false},{"type":"event","name":"ScoreMinted","inputs":[{"name":"tokenId","type":"uint256","indexed":true,"internalType":"uint256"},{"name":"to","type":"address","indexed":true,"internalType":"address"},{"name":"analysisId","type":"uint256","indexed":true,"internalType":"uint256"},{"name":"score","type":"uint256","indexed":false,"internalType":"uint256"}],"anonymous":false},{"type":"event","name":"Subscribed","inputs":[{"name":"user","type":"address","indexed":true,"internalType":"address"},{"name":"duration","type":"uint256","indexed":false,"internalType":"uint256"},{"name":"expiry","type":"uint256","indexed":false,"internalType":"uint256"}],"anonymous":false},{"type":"event","name":"Transfer","inputs":[{"name":"from","type":"address","indexed":true,"internalType":"address"},{"name":"to","type":"address","indexed":true,"internalType":"address"},{"name":"tokenId","type":"uint256","indexed":true,"internalType":"uint256"}],"anonymous":false},{"type":"error","name":"ECDSAInvalidSignature","inputs":[]},{"type":"error","name":"ECDSAInvalidSignatureLength","inputs":[{"name":"length","type":"uint256","internalType":"uint256"}]},{"type":"error","name":"ECDSAInvalidSignatureS","inputs":[{"name":"s","type":"bytes32","internalType":"bytes32"}]},{"type":"error","name":"ERC721IncorrectOwner","inputs":[{"name":"sender","type":"address","internalType":"address"},{"name":"tokenId","type":"uint256","internalType":"uint256"},{"name":"owner","type":"address","internalType":"address"}]},{"type":"error","name":"ERC721InsufficientApproval","inputs":[{"name":"operator","type":"address","internalType":"address"},{"name":"tokenId","type":"uint256","internalType":"uint256"}]},{"type":"error","name":"ERC721InvalidApprover","inputs":[{"name":"approver","type":"address","internalType":"address"}]},{"type":"error","name":"ERC721InvalidOperator","inputs":[{"name":"operator","type":"address","internalType":"address"}]},{"type":"error","name":"ERC721InvalidOwner","inputs":[{"name":"owner","type":"address","internalType":"address"}]},{"type":"error","name":"ERC721InvalidReceiver","inputs":[{"name":"receiver","type":"address","internalType":"address"}]},{"type":"error","name":"ERC721InvalidSender","inputs":[{"name":"sender","type":"address","internalType":"address"}]},{"type":"error","name":"ERC721NonexistentToken","inputs":[{"name":"tokenId","type":"uint256","internalType":"uint256"}]},{"type":"error","name":"OwnableInvalidOwner","inputs":[{"name":"owner","type":"address","internalType":"address"}]},{"type":"error","name":"OwnableUnauthorizedAccount","inputs":[{"name":"account","type":"address","internalType":"address"}]}],"bytecode":{"object":"0x608060405266038d7ea4c680006007556611c37937e0800060085566354a6ba7a1800060095562093a80600a556001600f553480156200003d575f80fd5b506040516200275d3803806200275d8339810160408190526200006091620001c3565b336040518060400160405280600e81526020016d536f756e646172796153636f726560901b8152506040518060400160405280600581526020016453434f524560d81b815250815f9081620000b6919062000290565b506001620000c5828262000290565b5050506001600160a01b038116620000f757604051631e4fbdf760e01b81525f60048201526024015b60405180910390fd5b620001028162000172565b506001600160a01b0381166200014c5760405162461bcd60e51b815260206004820152600e60248201526d06d696e7465725369676e65723d360941b6044820152606401620000ee565b600e80546001600160a01b0319166001600160a01b03929092169190911790556200035c565b600680546001600160a01b038381166001600160a01b0319831681179093556040519116919082907f8be0079c531659141344cd1fd0a4f28419497f9722a3daafe3b4186f6b6457e0905f90a35050565b5f60208284031215620001d4575f80fd5b81516001600160a01b0381168114620001eb575f80fd5b9392505050565b634e487b7160e01b5f52604160045260245ffd5b600181811c908216806200021b57607f821691505b6020821081036200023a57634e487b7160e01b5f52602260045260245ffd5b50919050565b601f8211156200028b57805f5260205f20601f840160051c81016020851015620002675750805b601f840160051c820191505b8181101562000288575f815560010162000273565b50505b505050565b81516001600160401b03811115620002ac57620002ac620001f2565b620002c481620002bd845462000206565b8462000240565b602080601f831160018114620002fa575f8415620002e25750858301515b5f19600386901b1c1916600185901b17855562000354565b5f85815260208120601f198616915b828110156200032a5788860151825594840194600190910190840162000309565b50858210156200034857878501515f19600388901b60f8161c191681555b505060018460011b0185555b505050505050565b6123f3806200036a5f395ff3fe608060405260043610610228575f3560e01c80638fd3ffc611610129578063d036e0d9116100a8578063f25ba4e71161006d578063f25ba4e714610693578063f2fde38b146106a6578063f373df0e146106c5578063f4a0a528146106cd578063f978fd61146106ec575f80fd5b8063d036e0d9146105f3578063dd99af1914610608578063deb973c314610627578063e985e9c514610646578063ef941c8e14610665575f80fd5b8063b88d4fde116100ee578063b88d4fde1461054a578063b92ae87c14610569578063c87b56dd146105a0578063c93e241b146105bf578063cc17e15d146105d4575f80fd5b80638fd3ffc6146104db57806395d89b41146104f0578063a22cb46514610504578063af862b2214610523578063b660447214610542575f80fd5b80634baa7356116101b557806370a082311161017a57806370a082311461043e578063715018a61461045d578063752821e91461047157806379444ad91461049f5780638da5cb5b146104be575f80fd5b80634baa735614610394578063608c831d146103b357806360a85ef5146103df5780636352211e1461040a5780636817c76c14610429575f80fd5b80630e1af57b116101fb5780630e1af57b146102d95780631010a4061461030757806323b872dd1461034057806332cb6b0c1461035f57806342842e0e14610375575f80fd5b806301ffc9a71461022c57806306fdde0314610260578063081812fc14610281578063095ea7b3146102b8575b5f80fd5b348015610237575f80fd5b5061024b610246366004611efd565b61071a565b60405190151581526020015b60405180910390f35b34801561026b575f80fd5b5061027461076b565b6040516102579190611f65565b34801561028c575f80fd5b506102a061029b366004611f77565b6107fa565b6040516001600160a01b039091168152602001610257565b3480156102c3575f80fd5b506102d76102d2366004611fa9565b610821565b005b3480156102e4575f80fd5b506102f86102f3366004611f77565b610830565b60405161025793929190611fd1565b348015610312575f80fd5b50610332610321366004612011565b600c6020525f908152604090205481565b604051908152602001610257565b34801561034b575f80fd5b506102d761035a36600461202a565b6108a8565b34801561036a575f80fd5b50610332620f424081565b348015610380575f80fd5b506102d761038f36600461202a565b610936565b34801561039f575f80fd5b50600e546102a0906001600160a01b031681565b3480156103be575f80fd5b506103d26103cd366004612011565b610955565b6040516102579190612063565b3480156103ea575f80fd5b506103326103f9366004612011565b600b6020525f908152604090205481565b348015610415575f80fd5b506102a0610424366004611f77565b6109be565b348015610434575f80fd5b5061033260075481565b348015610449575f80fd5b50610332610458366004612011565b6109c8565b348015610468575f80fd5b506102d7610a0d565b34801561047c575f80fd5b5061033261048b366004611f77565b5f9081526012602052604090206002015490565b3480156104aa575f80fd5b5061024b6104b9366004612011565b610a20565b3480156104c9575f80fd5b506006546001600160a01b03166102a0565b3480156104e6575f80fd5b50610332600a5481565b3480156104fb575f80fd5b50610274610a6b565b34801561050f575f80fd5b506102d761051e3660046120a6565b610a7a565b34801561052e575f80fd5b506102d761053d366004611f77565b610a85565b6102d7610a92565b348015610555575f80fd5b506102d76105643660046120f3565b610b36565b348015610574575f80fd5b5061024b610583366004612011565b6001600160a01b03165f908152600b602052604090205442111590565b3480156105ab575f80fd5b506102746105ba366004611f77565b610b4e565b3480156105ca575f80fd5b5061033260085481565b3480156105df575f80fd5b506103326105ee366004611fa9565b610bbf565b3480156105fe575f80fd5b5061033260095481565b348015610613575f80fd5b506102d7610622366004612011565b610bea565b348015610632575f80fd5b506102d76106413660046121c8565b610c58565b348015610651575f80fd5b5061024b6106603660046121e8565b610c6b565b348015610670575f80fd5b5061024b61067f366004611f77565b60106020525f908152604090205460ff1681565b6103326106a1366004612219565b610c98565b3480156106b1575f80fd5b506102d76106c0366004612011565b61128b565b6102d76112c8565b3480156106d8575f80fd5b506102d76106e7366004611f77565b61135f565b3480156106f7575f80fd5b5061024b610706366004611f77565b60116020525f908152604090205460ff1681565b5f6001600160e01b031982166380ac58cd60e01b148061074a57506001600160e01b03198216635b5e139f60e01b145b8061076557506301ffc9a760e01b6001600160e01b03198316145b92915050565b60605f80546107799061229e565b80601f01602080910402602001604051908101604052809291908181526020018280546107a59061229e565b80156107f05780601f106107c7576101008083540402835291602001916107f0565b820191905f5260205f20905b8154815290600101906020018083116107d357829003601f168201915b5050505050905090565b5f6108048261136c565b505f828152600460205260409020546001600160a01b0316610765565b61082c8282336113a4565b5050565b5f610839611eca565b50505f908152601260209081526040918290206002810154835160e081018552600383015481526004830154938101939093526005820154938301939093526006810154606083015260078101546080830152600881015460a0830152600981015460c0830152549192909190565b6001600160a01b0382166108d657604051633250574960e11b81525f60048201526024015b60405180910390fd5b5f6108e28383336113b1565b9050836001600160a01b0316816001600160a01b031614610930576040516364283d7b60e01b81526001600160a01b03808616600483015260248201849052821660448201526064016108cd565b50505050565b61095083838360405180602001604052805f815250610b36565b505050565b6001600160a01b0381165f908152600d60209081526040918290208054835181840281018401909452808452606093928301828280156109b257602002820191905f5260205f20905b81548152602001906001019080831161099e575b50505050509050919050565b5f6107658261136c565b5f6001600160a01b0382166109f2576040516322718ad960e21b81525f60048201526024016108cd565b506001600160a01b03165f9081526003602052604090205490565b610a156114a3565b610a1e5f6114d0565b565b600a546001600160a01b0382165f908152600c60205260408120549091610a46916122ea565b421015806107655750506001600160a01b03165f908152600c60205260409020541590565b6060600180546107799061229e565b61082c338383611521565b610a8d6114a3565b600a55565b6009543414610ad75760405162461bcd60e51b8152602060048201526011602482015270626164206d6f6e74686c7920707269636560781b60448201526064016108cd565b610ae362278d006115e8565b335f818152600b602090815260409182902054825162278d008152918201527ff94991dcbea6e8ac439cbc93bd9c62a4d39f04e0ad656df9a703f13552c2787f91015b60405180910390a2610a1e611640565b610b418484846108a8565b61093033858585856116e5565b6060610b598261136c565b505f610b6f60408051602081019091525f815290565b90505f815111610b8d5760405180602001604052805f815250610bb8565b80610b978461180d565b604051602001610ba89291906122fd565b6040516020818303038152906040525b9392505050565b600d602052815f5260405f208181548110610bd8575f80fd5b905f5260205f20015f91509150505481565b610bf26114a3565b6001600160a01b038116610c365760405162461bcd60e51b815260206004820152600b60248201526a06e65775369676e65723d360ac1b60448201526064016108cd565b600e80546001600160a01b0319166001600160a01b0392909216919091179055565b610c606114a3565b600891909155600955565b6001600160a01b039182165f90815260056020908152604080832093909416825291909152205460ff1690565b5f80610caa6060860160408701612011565b6001600160a01b031603610ce95760405162461bcd60e51b81526004016108cd906020808252600490820152630746f3d360e41b604082015260600190565b610cf233610a20565b610d375760405162461bcd60e51b815260206004820152601660248201527572657363616e20636f6f6c646f776e2061637469766560501b60448201526064016108cd565b335f908152600b6020526040902054421115610da2576007543414610d8f5760405162461bcd60e51b815260206004820152600e60248201526d626164206d696e7420707269636560901b60448201526064016108cd565b3415610d9d57610d9d611640565b610de9565b3415610de95760405162461bcd60e51b81526020600482015260166024820152750e6eac4e6c6e4d2c4cac85840e6cadcc84060408aa8960531b60448201526064016108cd565b5f8460600135118015610e0157506064846060013511155b610e425760405162461bcd60e51b815260206004820152601260248201527173636f7265206f7574206f662072616e676560701b60448201526064016108cd565b620f4240600f541115610e8c5760405162461bcd60e51b81526020600482015260126024820152711b585e081cdd5c1c1b1e481c995858da195960721b60448201526064016108cd565b5f8383604051610e9d92919061232b565b60408051918290039091205f8181526011602052919091205490915060ff1615610efa5760405162461bcd60e51b815260206004820152600e60248201526d1cda59db985d1d5c99481d5cd95960921b60448201526064016108cd565b84355f9081526010602052604090205460ff1615610f5a5760405162461bcd60e51b815260206004820152601760248201527f616e616c7973697320616c7265616479206d696e74656400000000000000000060448201526064016108cd565b5f610ff4604051806101600160405280885f0135815260200188602001358152602001886040016020810190610f909190612011565b6001600160a01b0316815260200188606001358152602001886080013581526020018860a0013581526020018860c0013581526020018860e0013581526020018861010001358152602001886101200135815260200188610140013581525061189d565b90505f6110368287878080601f0160208091040260200160405190810160405280939291908181526020018383808284375f920191909152506119a592505050565b600e549091506001600160a01b0380831691161461108a5760405162461bcd60e51b8152602060048201526011602482015270696e76616c6964207369676e617475726560781b60448201526064016108cd565b86355f9081526010602090815260408083208054600160ff19918216811790925587855260119093529083208054909216179055600f8054916110cc8361233a565b9091555093506110eb6110e56060890160408a01612011565b856119cd565b604051806101400160405280885f013581526020018860200135815260200188606001358152602001886080013581526020018860a0013581526020018860c0013581526020018860e0013581526020018861010001358152602001886101200135815260200188610140013581525060125f8681526020019081526020015f205f820151815f01556020820151816001015560408201518160020155606082015181600301556080820151816004015560a0820151816005015560c0820151816006015560e0820151816007015561010082015181600801556101208201518160090155905050600d5f8860400160208101906111e99190612011565b6001600160a01b0316815260208082019290925260409081015f908120805460018101825590825283822001879055338152600c9092529081902042905587359061123a9060608a01908a01612011565b6001600160a01b0316857fc9978399ecd47160abacdae8b42b4e6dda4c0e5658d47654fb24bb99ea9d290c8a6060013560405161127991815260200190565b60405180910390a45050509392505050565b6112936114a3565b6001600160a01b0381166112bc57604051631e4fbdf760e01b81525f60048201526024016108cd565b6112c5816114d0565b50565b600854341461130c5760405162461bcd60e51b815260206004820152601060248201526f626164207765656b6c7920707269636560801b60448201526064016108cd565b61131862093a806115e8565b335f818152600b602090815260409182902054825162093a808152918201527ff94991dcbea6e8ac439cbc93bd9c62a4d39f04e0ad656df9a703f13552c2787f9101610b26565b6113676114a3565b600755565b5f818152600260205260408120546001600160a01b03168061076557604051637e27328960e01b8152600481018490526024016108cd565b61095083838360016119e6565b5f828152600260205260408120546001600160a01b03908116908316156113dd576113dd818486611aea565b6001600160a01b03811615611417576113f85f855f806119e6565b6001600160a01b0381165f90815260036020526040902080545f190190555b6001600160a01b03851615611445576001600160a01b0385165f908152600360205260409020805460010190555b5f8481526002602052604080822080546001600160a01b0319166001600160a01b0389811691821790925591518793918516917fddf252ad1be2c89b69c2b068fc378daa952ba7f163c4a11628f55a4df523b3ef91a4949350505050565b6006546001600160a01b03163314610a1e5760405163118cdaa760e01b81523360048201526024016108cd565b600680546001600160a01b038381166001600160a01b0319831681179093556040519116919082907f8be0079c531659141344cd1fd0a4f28419497f9722a3daafe3b4186f6b6457e0905f90a35050565b6001600160a01b03831661154a5760405163a9fbf51f60e01b81525f60048201526024016108cd565b6001600160a01b03821661157c57604051630b61174360e31b81526001600160a01b03831660048201526024016108cd565b6001600160a01b038381165f81815260056020908152604080832094871680845294825291829020805460ff191686151590811790915591519182527f17307eab39ab6107e8899845ad3d59bd9653f200f220920489ca2b5937696c31910160405180910390a3505050565b335f908152600b602052604090205442111561161a5761160881426122ea565b335f908152600b602052604090205550565b335f908152600b6020526040812080548392906116389084906122ea565b909155505050565b5f6116536006546001600160a01b031690565b6001600160a01b0316346040515f6040518083038185875af1925050503d805f811461169a576040519150601f19603f3d011682016040523d82523d5f602084013e61169f565b606091505b50509050806112c55760405162461bcd60e51b815260206004820152601260248201527111551208199bdc9dd85c990819985a5b195960721b60448201526064016108cd565b6001600160a01b0383163b1561180657604051630a85bd0160e11b81526001600160a01b0384169063150b7a0290611727908890889087908790600401612352565b6020604051808303815f875af1925050508015611761575060408051601f3d908101601f1916820190925261175e9181019061238e565b60015b6117c8573d80801561178e576040519150601f19603f3d011682016040523d82523d5f602084013e611793565b606091505b5080515f036117c057604051633250574960e11b81526001600160a01b03851660048201526024016108cd565b805160208201fd5b6001600160e01b03198116630a85bd0160e11b1461180457604051633250574960e11b81526001600160a01b03851660048201526024016108cd565b505b5050505050565b60605f61181983611b4e565b60010190505f8167ffffffffffffffff811115611838576118386120df565b6040519080825280601f01601f191660200182016040528015611862576020820181803683370190505b5090508181016020015b5f19016f181899199a1a9b1b9c1cb0b131b232b360811b600a86061a8153600a850494508461186c57509392505050565b5f80825f015183602001518460400151856060015186608001518760a001518860c001518960e001518a61010001518b61012001518c610140015146306040516020016119579d9c9b9a999897969594939291909c8d5260208d019b909b526001600160a01b03998a1660408d015260608c019890985260808b019690965260a08a019490945260c089019290925260e0880152610100870152610120860152610140850152610160840152166101808201526101a00190565b604051602081830303815290604052805190602001209050610bb8817f19457468657265756d205369676e6564204d6573736167653a0a3332000000005f908152601c91909152603c902090565b5f805f806119b38686611c25565b9250925092506119c38282611c6e565b5090949350505050565b61082c828260405180602001604052805f815250611d26565b80806119fa57506001600160a01b03821615155b15611abb575f611a098461136c565b90506001600160a01b03831615801590611a355750826001600160a01b0316816001600160a01b031614155b8015611a485750611a468184610c6b565b155b15611a715760405163a9fbf51f60e01b81526001600160a01b03841660048201526024016108cd565b8115611ab95783856001600160a01b0316826001600160a01b03167f8c5be1e5ebec7d5bd14f71427d1e84f3dd0314c0f7b2291e5b200ac8c7c3b92560405160405180910390a45b505b50505f90815260046020526040902080546001600160a01b0319166001600160a01b0392909216919091179055565b611af5838383611d3d565b610950576001600160a01b038316611b2357604051637e27328960e01b8152600481018290526024016108cd565b60405163177e802f60e01b81526001600160a01b0383166004820152602481018290526044016108cd565b5f8072184f03e93ff9f4daa797ed6e38ed64bf6a1f0160401b8310611b8c5772184f03e93ff9f4daa797ed6e38ed64bf6a1f0160401b830492506040015b6d04ee2d6d415b85acef81000000008310611bb8576d04ee2d6d415b85acef8100000000830492506020015b662386f26fc100008310611bd657662386f26fc10000830492506010015b6305f5e1008310611bee576305f5e100830492506008015b6127108310611c0257612710830492506004015b60648310611c14576064830492506002015b600a83106107655760010192915050565b5f805f8351604103611c5c576020840151604085015160608601515f1a611c4e88828585611da1565b955095509550505050611c67565b505081515f91506002905b9250925092565b5f826003811115611c8157611c816123a9565b03611c8a575050565b6001826003811115611c9e57611c9e6123a9565b03611cbc5760405163f645eedf60e01b815260040160405180910390fd5b6002826003811115611cd057611cd06123a9565b03611cf15760405163fce698f760e01b8152600481018290526024016108cd565b6003826003811115611d0557611d056123a9565b0361082c576040516335e2f38360e21b8152600481018290526024016108cd565b611d308383611e69565b610950335f8585856116e5565b5f6001600160a01b03831615801590611d995750826001600160a01b0316846001600160a01b03161480611d765750611d768484610c6b565b80611d9957505f828152600460205260409020546001600160a01b038481169116145b949350505050565b5f80807f7fffffffffffffffffffffffffffffff5d576e7357a4501ddfe92f46681b20a0841115611dda57505f91506003905082611e5f565b604080515f808252602082018084528a905260ff891692820192909252606081018790526080810186905260019060a0016020604051602081039080840390855afa158015611e2b573d5f803e3d5ffd5b5050604051601f1901519150506001600160a01b038116611e5657505f925060019150829050611e5f565b92505f91508190505b9450945094915050565b6001600160a01b038216611e9257604051633250574960e11b81525f60048201526024016108cd565b5f611e9e83835f6113b1565b90506001600160a01b03811615610950576040516339e3563760e11b81525f60048201526024016108cd565b6040518060e001604052806007906020820280368337509192915050565b6001600160e01b0319811681146112c5575f80fd5b5f60208284031215611f0d575f80fd5b8135610bb881611ee8565b5f5b83811015611f32578181015183820152602001611f1a565b50505f910152565b5f8151808452611f51816020860160208601611f18565b601f01601f19169290920160200192915050565b602081525f610bb86020830184611f3a565b5f60208284031215611f87575f80fd5b5035919050565b80356001600160a01b0381168114611fa4575f80fd5b919050565b5f8060408385031215611fba575f80fd5b611fc383611f8e565b946020939093013593505050565b83815261012081016020808301855f5b6007811015611ffe57815183529183019190830190600101611fe1565b5050505082610100830152949350505050565b5f60208284031215612021575f80fd5b610bb882611f8e565b5f805f6060848603121561203c575f80fd5b61204584611f8e565b925061205360208501611f8e565b9150604084013590509250925092565b602080825282518282018190525f9190848201906040850190845b8181101561209a5783518352928401929184019160010161207e565b50909695505050505050565b5f80604083850312156120b7575f80fd5b6120c083611f8e565b9150602083013580151581146120d4575f80fd5b809150509250929050565b634e487b7160e01b5f52604160045260245ffd5b5f805f8060808587031215612106575f80fd5b61210f85611f8e565b935061211d60208601611f8e565b925060408501359150606085013567ffffffffffffffff80821115612140575f80fd5b818701915087601f830112612153575f80fd5b813581811115612165576121656120df565b604051601f8201601f19908116603f0116810190838211818310171561218d5761218d6120df565b816040528281528a60208487010111156121a5575f80fd5b826020860160208301375f60208483010152809550505050505092959194509250565b5f80604083850312156121d9575f80fd5b50508035926020909101359150565b5f80604083850312156121f9575f80fd5b61220283611f8e565b915061221060208401611f8e565b90509250929050565b5f805f83850361018081121561222d575f80fd5b6101608082121561223c575f80fd5b859450840135905067ffffffffffffffff80821115612259575f80fd5b818601915086601f83011261226c575f80fd5b81358181111561227a575f80fd5b87602082850101111561228b575f80fd5b6020830194508093505050509250925092565b600181811c908216806122b257607f821691505b6020821081036122d057634e487b7160e01b5f52602260045260245ffd5b50919050565b634e487b7160e01b5f52601160045260245ffd5b80820180821115610765576107656122d6565b5f835161230e818460208801611f18565b835190830190612322818360208801611f18565b01949350505050565b818382375f9101908152919050565b5f6001820161234b5761234b6122d6565b5060010190565b6001600160a01b03858116825284166020820152604081018390526080606082018190525f9061238490830184611f3a565b9695505050505050565b5f6020828403121561239e575f80fd5b8151610bb881611ee8565b634e487b7160e01b5f52602160045260245ffdfea264697066735822122060cd4f4344aab430a5c1619a697dce5954c27b8894cf4116334b2ca933631b5764736f6c63430008180033","linkReferences":{}},"methodIdentifiers":{"MAX_SUPPLY()":"32cb6b0c","analysisIdMinted(uint256)":"ef941c8e","approve(address,uint256)":"095ea7b3","balanceOf(address)":"70a08231","canRescan(address)":"79444ad9","getApproved(uint256)":"081812fc","getScore(uint256)":"0e1af57b","getUserScores(address)":"608c831d","isApprovedForAll(address,address)":"e985e9c5","isSubscribed(address)":"b92ae87c","lastScanTime(address)":"1010a406","mintPrice()":"6817c76c","mintScore((uint256,uint256,address,uint256,uint256,uint256,uint256,uint256,uint256,uint256,uint256),bytes)":"f25ba4e7","minterSigner()":"4baa7356","monthlySubscriptionPrice()":"d036e0d9","name()":"06fdde03","owner()":"8da5cb5b","ownerOf(uint256)":"6352211e","renounceOwnership()":"715018a6","rescanCooldown()":"8fd3ffc6","safeTransferFrom(address,address,uint256)":"42842e0e","safeTransferFrom(address,address,uint256,bytes)":"b88d4fde","scoreOf(uint256)":"752821e9","setApprovalForAll(address,bool)":"a22cb465","setMintPrice(uint256)":"f4a0a528","setMinterSigner(address)":"dd99af19","setRescanCooldown(uint256)":"af862b22","setSubscriptionPrices(uint256,uint256)":"deb973c3","subscribeMonthly()":"b6604472","subscribeWeekly()":"f373df0e","subscriptionExpiry(address)":"60a85ef5","supportsInterface(bytes4)":"01ffc9a7","symbol()":"95d89b41","tokenURI(uint256)":"c87b56dd","transferFrom(address,address,uint256)":"23b872dd","transferOwnership(address)":"f2fde38b","usedSignatures(bytes32)":"f978fd61","userTokenIds(address,uint256)":"cc17e15d","weeklySubscriptionPrice()":"c93e241b"},"id":1}